{
  "_format": "hh-sol-artifact-1",
  "contractName": "Sender",
  "sourceName": "contracts/sender.sol",
  "abi": [
    {
      "inputs": [
        {
          "internalType": "address",
          "name": "_router",
          "type": "address"
        },
        {
          "internalType": "address",
          "name": "_link",
          "type": "address"
        }
      ],
      "stateMutability": "nonpayable",
      "type": "constructor"
    },
    {
      "inputs": [
        {
          "internalType": "uint256",
          "name": "currentBalance",
          "type": "uint256"
        },
        {
          "internalType": "uint256",
          "name": "calculatedFees",
          "type": "uint256"
        }
      ],
      "name": "NotEnoughBalance",
      "type": "error"
    },
    {
      "anonymous": false,
      "inputs": [
        {
          "indexed": true,
          "internalType": "bytes32",
          "name": "messageId",
          "type": "bytes32"
        },
        {
          "indexed": true,
          "internalType": "uint64",
          "name": "destinationChainSelector",
          "type": "uint64"
        },
        {
          "indexed": false,
          "internalType": "address",
          "name": "receiver",
          "type": "address"
        },
        {
          "indexed": false,
          "internalType": "string",
          "name": "text",
          "type": "string"
        },
        {
          "indexed": false,
          "internalType": "address",
          "name": "feeToken",
          "type": "address"
        },
        {
          "indexed": false,
          "internalType": "uint256",
          "name": "fees",
          "type": "uint256"
        }
      ],
      "name": "MessageSent",
      "type": "event"
    },
    {
      "anonymous": false,
      "inputs": [
        {
          "indexed": true,
          "internalType": "address",
          "name": "from",
          "type": "address"
        },
        {
          "indexed": true,
          "internalType": "address",
          "name": "to",
          "type": "address"
        }
      ],
      "name": "OwnershipTransferRequested",
      "type": "event"
    },
    {
      "anonymous": false,
      "inputs": [
        {
          "indexed": true,
          "internalType": "address",
          "name": "from",
          "type": "address"
        },
        {
          "indexed": true,
          "internalType": "address",
          "name": "to",
          "type": "address"
        }
      ],
      "name": "OwnershipTransferred",
      "type": "event"
    },
    {
      "inputs": [],
      "name": "acceptOwnership",
      "outputs": [],
      "stateMutability": "nonpayable",
      "type": "function"
    },
    {
      "inputs": [],
      "name": "owner",
      "outputs": [
        {
          "internalType": "address",
          "name": "",
          "type": "address"
        }
      ],
      "stateMutability": "view",
      "type": "function"
    },
    {
      "inputs": [
        {
          "internalType": "uint64",
          "name": "destinationChainSelector",
          "type": "uint64"
        },
        {
          "internalType": "address",
          "name": "receiver",
          "type": "address"
        },
        {
          "internalType": "string",
          "name": "text",
          "type": "string"
        }
      ],
      "name": "sendMessage",
      "outputs": [
        {
          "internalType": "bytes32",
          "name": "messageId",
          "type": "bytes32"
        }
      ],
      "stateMutability": "nonpayable",
      "type": "function"
    },
    {
      "inputs": [
        {
          "internalType": "address",
          "name": "to",
          "type": "address"
        }
      ],
      "name": "transferOwnership",
      "outputs": [],
      "stateMutability": "nonpayable",
      "type": "function"
    }
  ],
  "bytecode": "0x60806040523480156200001157600080fd5b506040516200176a3803806200176a833981810160405281019062000037919062000359565b338060008073ffffffffffffffffffffffffffffffffffffffff168273ffffffffffffffffffffffffffffffffffffffff1603620000ac576040517f08c379a0000000000000000000000000000000000000000000000000000000008152600401620000a39062000401565b60405180910390fd5b816000806101000a81548173ffffffffffffffffffffffffffffffffffffffff021916908373ffffffffffffffffffffffffffffffffffffffff160217905550600073ffffffffffffffffffffffffffffffffffffffff168173ffffffffffffffffffffffffffffffffffffffff161462000133576200013281620001c060201b60201c565b5b50505081600260006101000a81548173ffffffffffffffffffffffffffffffffffffffff021916908373ffffffffffffffffffffffffffffffffffffffff16021790555080600360006101000a81548173ffffffffffffffffffffffffffffffffffffffff021916908373ffffffffffffffffffffffffffffffffffffffff160217905550505062000495565b3373ffffffffffffffffffffffffffffffffffffffff168173ffffffffffffffffffffffffffffffffffffffff160362000231576040517f08c379a0000000000000000000000000000000000000000000000000000000008152600401620002289062000473565b60405180910390fd5b80600160006101000a81548173ffffffffffffffffffffffffffffffffffffffff021916908373ffffffffffffffffffffffffffffffffffffffff1602179055508073ffffffffffffffffffffffffffffffffffffffff1660008054906101000a900473ffffffffffffffffffffffffffffffffffffffff1673ffffffffffffffffffffffffffffffffffffffff167fed8889f560326eb138920d842192f0eb3dd22b4f139c87a2c57538e05bae127860405160405180910390a350565b600080fd5b600073ffffffffffffffffffffffffffffffffffffffff82169050919050565b60006200032182620002f4565b9050919050565b620003338162000314565b81146200033f57600080fd5b50565b600081519050620003538162000328565b92915050565b60008060408385031215620003735762000372620002ef565b5b6000620003838582860162000342565b9250506020620003968582860162000342565b9150509250929050565b600082825260208201905092915050565b7f43616e6e6f7420736574206f776e657220746f207a65726f0000000000000000600082015250565b6000620003e9601883620003a0565b9150620003f682620003b1565b602082019050919050565b600060208201905081810360008301526200041c81620003da565b9050919050565b7f43616e6e6f74207472616e7366657220746f2073656c66000000000000000000600082015250565b60006200045b601783620003a0565b9150620004688262000423565b602082019050919050565b600060208201905081810360008301526200048e816200044c565b9050919050565b6112c580620004a56000396000f3fe608060405234801561001057600080fd5b506004361061004c5760003560e01c80630eb5ad451461005157806379ba5097146100815780638da5cb5b1461008b578063f2fde38b146100a9575b600080fd5b61006b60048036038101906100669190610b2d565b6100c5565b6040516100789190610bba565b60405180910390f35b6100896105e3565b005b610093610778565b6040516100a09190610be4565b60405180910390f35b6100c360048036038101906100be9190610bff565b6107a1565b005b60006100cf6107b5565b60006040518060a00160405280866040516020016100ed9190610be4565b60405160208183030381529060405281526020018585604051602001610114929190610c8a565b6040516020818303038152906040528152602001600067ffffffffffffffff81111561014357610142610cae565b5b60405190808252806020026020018201604052801561017c57816020015b6101696109f0565b8152602001906001900390816101615790505b508152602001600360009054906101000a900473ffffffffffffffffffffffffffffffffffffffff1673ffffffffffffffffffffffffffffffffffffffff1681526020016101e3604051806040016040528062030d40815260200160001515815250610845565b81525090506000600260009054906101000a900473ffffffffffffffffffffffffffffffffffffffff1673ffffffffffffffffffffffffffffffffffffffff166320487ded88846040518363ffffffff1660e01b8152600401610247929190610efc565b602060405180830381865afa158015610264573d6000803e3d6000fd5b505050506040513d601f19601f820116820180604052508101906102889190610f58565b9050600360009054906101000a900473ffffffffffffffffffffffffffffffffffffffff1673ffffffffffffffffffffffffffffffffffffffff166370a08231306040518263ffffffff1660e01b81526004016102e59190610be4565b602060405180830381865afa158015610302573d6000803e3d6000fd5b505050506040513d601f19601f820116820180604052508101906103269190610f58565b81111561040757600360009054906101000a900473ffffffffffffffffffffffffffffffffffffffff1673ffffffffffffffffffffffffffffffffffffffff166370a08231306040518263ffffffff1660e01b81526004016103889190610be4565b602060405180830381865afa1580156103a5573d6000803e3d6000fd5b505050506040513d601f19601f820116820180604052508101906103c99190610f58565b816040517f8f0f42060000000000000000000000000000000000000000000000000000000081526004016103fe929190610f94565b60405180910390fd5b600360009054906101000a900473ffffffffffffffffffffffffffffffffffffffff1673ffffffffffffffffffffffffffffffffffffffff1663095ea7b3600260009054906101000a900473ffffffffffffffffffffffffffffffffffffffff16836040518363ffffffff1660e01b8152600401610486929190610fbd565b6020604051808303816000875af11580156104a5573d6000803e3d6000fd5b505050506040513d601f19601f820116820180604052508101906104c9919061101e565b50600260009054906101000a900473ffffffffffffffffffffffffffffffffffffffff1673ffffffffffffffffffffffffffffffffffffffff166396f4e9f988846040518363ffffffff1660e01b8152600401610527929190610efc565b6020604051808303816000875af1158015610546573d6000803e3d6000fd5b505050506040513d601f19601f8201168201806040525081019061056a9190611077565b92508667ffffffffffffffff16837fd36445359b3c6e26c120659aef090ce0f2eb005cf9af450d11aa1225609b4f4d888888600360009054906101000a900473ffffffffffffffffffffffffffffffffffffffff16876040516105d19594939291906110a4565b60405180910390a35050949350505050565b600160009054906101000a900473ffffffffffffffffffffffffffffffffffffffff1673ffffffffffffffffffffffffffffffffffffffff163373ffffffffffffffffffffffffffffffffffffffff1614610673576040517f08c379a000000000000000000000000000000000000000000000000000000000815260040161066a9061113e565b60405180910390fd5b60008060009054906101000a900473ffffffffffffffffffffffffffffffffffffffff169050336000806101000a81548173ffffffffffffffffffffffffffffffffffffffff021916908373ffffffffffffffffffffffffffffffffffffffff1602179055506000600160006101000a81548173ffffffffffffffffffffffffffffffffffffffff021916908373ffffffffffffffffffffffffffffffffffffffff1602179055503373ffffffffffffffffffffffffffffffffffffffff168173ffffffffffffffffffffffffffffffffffffffff167f8be0079c531659141344cd1fd0a4f28419497f9722a3daafe3b4186f6b6457e060405160405180910390a350565b60008060009054906101000a900473ffffffffffffffffffffffffffffffffffffffff16905090565b6107a96107b5565b6107b2816108c4565b50565b60008054906101000a900473ffffffffffffffffffffffffffffffffffffffff1673ffffffffffffffffffffffffffffffffffffffff163373ffffffffffffffffffffffffffffffffffffffff1614610843576040517f08c379a000000000000000000000000000000000000000000000000000000000815260040161083a906111aa565b60405180910390fd5b565b60606397a657c960e01b826040516024016108609190611208565b604051602081830303815290604052907bffffffffffffffffffffffffffffffffffffffffffffffffffffffff19166020820180517bffffffffffffffffffffffffffffffffffffffffffffffffffffffff83818316178352505050509050919050565b3373ffffffffffffffffffffffffffffffffffffffff168173ffffffffffffffffffffffffffffffffffffffff1603610932576040517f08c379a00000000000000000000000000000000000000000000000000000000081526004016109299061126f565b60405180910390fd5b80600160006101000a81548173ffffffffffffffffffffffffffffffffffffffff021916908373ffffffffffffffffffffffffffffffffffffffff1602179055508073ffffffffffffffffffffffffffffffffffffffff1660008054906101000a900473ffffffffffffffffffffffffffffffffffffffff1673ffffffffffffffffffffffffffffffffffffffff167fed8889f560326eb138920d842192f0eb3dd22b4f139c87a2c57538e05bae127860405160405180910390a350565b6040518060400160405280600073ffffffffffffffffffffffffffffffffffffffff168152602001600081525090565b600080fd5b600080fd5b600067ffffffffffffffff82169050919050565b610a4781610a2a565b8114610a5257600080fd5b50565b600081359050610a6481610a3e565b92915050565b600073ffffffffffffffffffffffffffffffffffffffff82169050919050565b6000610a9582610a6a565b9050919050565b610aa581610a8a565b8114610ab057600080fd5b50565b600081359050610ac281610a9c565b92915050565b600080fd5b600080fd5b600080fd5b60008083601f840112610aed57610aec610ac8565b5b8235905067ffffffffffffffff811115610b0a57610b09610acd565b5b602083019150836001820283011115610b2657610b25610ad2565b5b9250929050565b60008060008060608587031215610b4757610b46610a20565b5b6000610b5587828801610a55565b9450506020610b6687828801610ab3565b935050604085013567ffffffffffffffff811115610b8757610b86610a25565b5b610b9387828801610ad7565b925092505092959194509250565b6000819050919050565b610bb481610ba1565b82525050565b6000602082019050610bcf6000830184610bab565b92915050565b610bde81610a8a565b82525050565b6000602082019050610bf96000830184610bd5565b92915050565b600060208284031215610c1557610c14610a20565b5b6000610c2384828501610ab3565b91505092915050565b600082825260208201905092915050565b82818337600083830152505050565b6000601f19601f8301169050919050565b6000610c698385610c2c565b9350610c76838584610c3d565b610c7f83610c4c565b840190509392505050565b60006020820190508181036000830152610ca5818486610c5d565b90509392505050565b7f4e487b7100000000000000000000000000000000000000000000000000000000600052604160045260246000fd5b610ce681610a2a565b82525050565b600081519050919050565b600082825260208201905092915050565b60005b83811015610d26578082015181840152602081019050610d0b565b60008484015250505050565b6000610d3d82610cec565b610d478185610cf7565b9350610d57818560208601610d08565b610d6081610c4c565b840191505092915050565b600081519050919050565b600082825260208201905092915050565b6000819050602082019050919050565b610da081610a8a565b82525050565b6000819050919050565b610db981610da6565b82525050565b604082016000820151610dd56000850182610d97565b506020820151610de86020850182610db0565b50505050565b6000610dfa8383610dbf565b60408301905092915050565b6000602082019050919050565b6000610e1e82610d6b565b610e288185610d76565b9350610e3383610d87565b8060005b83811015610e64578151610e4b8882610dee565b9750610e5683610e06565b925050600181019050610e37565b5085935050505092915050565b600060a0830160008301518482036000860152610e8e8282610d32565b91505060208301518482036020860152610ea88282610d32565b91505060408301518482036040860152610ec28282610e13565b9150506060830151610ed76060860182610d97565b5060808301518482036080860152610eef8282610d32565b9150508091505092915050565b6000604082019050610f116000830185610cdd565b8181036020830152610f238184610e71565b90509392505050565b610f3581610da6565b8114610f4057600080fd5b50565b600081519050610f5281610f2c565b92915050565b600060208284031215610f6e57610f6d610a20565b5b6000610f7c84828501610f43565b91505092915050565b610f8e81610da6565b82525050565b6000604082019050610fa96000830185610f85565b610fb66020830184610f85565b9392505050565b6000604082019050610fd26000830185610bd5565b610fdf6020830184610f85565b9392505050565b60008115159050919050565b610ffb81610fe6565b811461100657600080fd5b50565b60008151905061101881610ff2565b92915050565b60006020828403121561103457611033610a20565b5b600061104284828501611009565b91505092915050565b61105481610ba1565b811461105f57600080fd5b50565b6000815190506110718161104b565b92915050565b60006020828403121561108d5761108c610a20565b5b600061109b84828501611062565b91505092915050565b60006080820190506110b96000830188610bd5565b81810360208301526110cc818688610c5d565b90506110db6040830185610bd5565b6110e86060830184610f85565b9695505050505050565b7f4d7573742062652070726f706f736564206f776e657200000000000000000000600082015250565b6000611128601683610c2c565b9150611133826110f2565b602082019050919050565b600060208201905081810360008301526111578161111b565b9050919050565b7f4f6e6c792063616c6c61626c65206279206f776e657200000000000000000000600082015250565b6000611194601683610c2c565b915061119f8261115e565b602082019050919050565b600060208201905081810360008301526111c381611187565b9050919050565b6111d381610fe6565b82525050565b6040820160008201516111ef6000850182610db0565b50602082015161120260208501826111ca565b50505050565b600060408201905061121d60008301846111d9565b92915050565b7f43616e6e6f74207472616e7366657220746f2073656c66000000000000000000600082015250565b6000611259601783610c2c565b915061126482611223565b602082019050919050565b600060208201905081810360008301526112888161124c565b905091905056fea2646970667358221220dbc36d7751feeebb2cc88595c7b1671a985ba15a30b2bd24ab5d6ad05d1815b464736f6c63430008130033",
  "linkReferences": {},
  "deployedLinkReferences": {}
}